:030000000209A949
:0C09A900787FE4F6D8FD7581200209F08B
:1008F60053797374656D20526561647900536D6F29
:100906006B6520446574656374656400486967684F
:100916002054656D70204465746563746564005089
:1009260072657373205265736574005341464500C2
:1009360053656E64696E6720534D530041540D0A2A
:100946000041542B434D47463D310D0A0041542B7F
:10095600434D47533D222B39313132333435363707
:10096600383930220D0A00414C455254212046693F
:1009760072652064657465637465642E20536D6FBB
:100986006B6520616E6420686967682074656D70A8
:1009960065726174757265206F62736572766564DF
:0309A6002E1A0006
:020B0300C1002F
:10080000C2A0C2A4D2B2120ABF120AF77F01120A12
:10081000D37BFF7A0879F6120A5D30912820922561
:100820002000227F01120AD37BFF7A097903120A82
:100830005DD2A07F907E01120A86C2A07F907E01C9
:10084000120A8680D53091D23092CF2000CCD200CF
:10085000D2A0C2A47F01120AD37BFF7A09791212B7
:100860000A5D7FC0120AD37BFF7A097925120A5DDF
:10087000E4F508F509C3E5099464E50894005032ED
:10088000309002D2A420B219C2A0C2A4C2007F013B
:10089000120AD37BFF7A097931120A5D20B21380E4
:1008A000FB7F647E00120A860509E50970C705080A
:1008B00080C320000302081A7F01120AD37BFF7A4B
:1008C000097936120A5D7BFF7A097942120A3512DC
:1008D0000A827BFF7A097947120A35120A827BFF66
:1008E0007A097953120A35120A827BFF7A09796DE7
:0608F000120A3502081A8D
:100ABF007F38120AD37F0C120AD37F06120AD37F14
:040ACF0001020AD343
:100AD3008F80C2A1C2A2D2A37F027E00120A86C265
:020AE300A3224C
:100AE5008F80D2A1C2A2D2A37F027E00120A86C243
:020AF500A3223A
:100A5D008B0A8A0B890CAB0AAA0BA90C120AA66089
:100A6D0013050CE50C7002050B14F9120AA6FF1202
:050A7D000AE580E22201
:0C0AF700758920758DFD759850D28E22F7
:100A35008B0A8A0B890CAB0AAA0BA90C120AA660B1
:100A450016050CE50C7002050B14F9120AA6F599AA
:080A55003099FDC29980DF22F7
:040A82007FE87E0388
:100A8600E4FDFCC3ED9FEC9E5015E4FBFA0BBB00A6
:0F0A9600010ABA04F8BBFBF50DBD00010C80E4AA
:010AA500222E
:1009B500020800E493A3F8E493A34003F68001F250
:1009C50008DFF48029E493A3F85407240CC8C33343
:1009D500C4540F4420C8834004F456800146F6DF12
:1009E500E4800B0102040810204080900B03E47E94
:1009F500019360BCA3FF543F30E509541FFEE49307
:100A0500A360010ECF54C025E060A840B8E493A3CD
:100A1500FAE493A3F8E493A3C8C582C8CAC583CAF8
:100A2500F0A3C8C582C8CAC583CADFE9DEE780BEB0
:010B050000EF
:100AA600BB010689828A83E0225002E722BBFE024E
:090AB600E32289828A83E4932281
:00000001FF
